:060000000A128A110C280F
:10000800FE00030EF1000A08F2000A128A11F42910
:100018000A128A110F280A128A1158220A128A1102
:10002800B500AF01B001B101B201B301B401F801EB
:10003800F901FA0183010A128A11FA2883120313BB
:10004800AE006430A2000030A3002E08AA00AB0165
:100058002A08A4002B08A5000A128A1191200A1266
:100068008A11831203132208AC002C08AF000A304F
:10007800A2000030A3002F08AA00AB012A08F30051
:100088002B08F4009C30F500FF30F6000A128A11A4
:10009800C9210A128A11831203132E087307A400B8
:1000A80074080318740AA5000A128A1191200A120A
:1000B8008A11831203132208AC002C08B0009C306C
:1000C800AA002A08F3002F080A128A1137220A12F6
:1000D8008A1183120313AB00F630AC002C08F3002E
:1000E80030080A128A1137220A128A11831203135E
:1000F8002B072E07AD002D08B1002F08303EAA00AF
:100108002A08AF003008303EAA002A08B00031089B
:10011800303EAA002A08B100080083120313A70181
:10012800A31F972898289F28A209A309A20A0319A0
:10013800A30AA701A70AA51FA228A328AC28A409D7
:10014800A509A40A0319A50A0130F7007708A7062C
:10015800A801A901220823040319B328B428EB280D
:10016800A601A60AC22801300310A20DA30DFF3E66
:10017800031DB8280130F7007708A607A31FC52874
:10018800C628B72801300310A80DA90DFF3E031D8E
:10019800C72823082502031DD32822082402031C8C
:1001A800D628D728DE282208A4022308031CA50382
:1001B800A502281401300310A30CA20CFF3E031D56
:1001C800DF280130A602031DEA28EB28C6282708E5
:1001D8000319EF28F028F528A809A909A80A03197E
:1001E800A90A2908A3002808A20008000A128A11EF
:1001F8004E210A128A11831203139F180429052914
:1002080006299F147A08031D0A290B29132901308E
:100218000A128A1118220A128A11FA01FA0A3130CE
:100228007806031D182919293F29FA018312031397
:10023800B20133080A128A1122200A128A11F9011E
:10024800831203132F080A128A114C220A128A11E8
:100258008312031330080A128A114C220A128A11D7
:100268008312031331080A128A114C220A128A11C6
:10027800F901F90AF80132307806031D44294529A5
:10028800FF2883120313B201B20AF801FF280A12E9
:100298008A110C2801308316031788008901013060
:1002A8008316031385008312031385018316031332
:1002B8008601831203138601831603130F088F39EF
:1002C80040388F000F143F30831203139F058316A5
:1002D80003131F129F12C330831203139F05831643
:1002E80003139F13831203131F140330F300F30B3C
:1002F8007B298316031318121815831603178715FD
:1003080019308316031399009A018312031398175F
:1003180083160313181398168312031318160C1355
:10032800831603130C178B170B178C160800013054
:100338008A000408840A820700340A3431342034DD
:100348004C34653465347234203450346F3474342A
:1003580065346E34633469346F346D3465347434A1
:1003680072346F3420340A343234203445346E34D5
:1003780076346934613472342034613473346334CC
:100388006934693420340A34003483120313A00119
:10039800A101731CD029D129D92975088312031307
:1003A800A0070318A10A7608A10701300310F50D6C
:1003B800F60DFF3E031DDA2901300310F40CF30C8F
:1003C800FF3E031DE12973087404031DEC29ED2980
:1003D800CD29831203132108F4002008F300080034
:1003E800831203138C1EF929FA29082A1A08F00027
:1003F8007008F8003203031D022A032A112A78081C
:100408008600B201FA01112A0C1F0B2A0C2A112AA4
:100418001E08F0007008B3000C1372088A00710EF1
:100428008300FE0E7E0E0900F5002A2A7508840056
:100438000A128A119B210A128A110A128A114C2265
:100448000A128A110130F4007408F507750884004F
:100458000A128A119B210A128A11003A031D352AB1
:10046800362A1A2A0800F600F501761C3C2A3D2A8D
:10047800412A7308F4007408F5070310F30D0310FC
:10048800F60C7608031D492A4A2A392A75080800F5
:10049800F30083160313981C522A532A4D2A730813
:0A04A80083120313990008000134C9
:08400000FF3FFF3FFF3FFF3FC0
:04400E00D420FF3F7C
:00000001FF
